S01100006572696B61336170702E7372656393
S3151FFE000000F001200104FE1F4904FE1F4904FE1FC6
S3151FFE00104904FE1F4904FE1F4904FE1F000000007F
S3151FFE00200000000000000000000000003106FE1F59
S3151FFE00304904FE1F000000001106FE1F4904FE1F95
S3151FFE00404904FE1F4904FE1F4904FE1F4904FE1FE5
S3151FFE00504904FE1F4904FE1F4904FE1F4904FE1FD5
S3151FFE00604904FE1F4904FE1F4904FE1F4904FE1FC5
S3151FFE00704904FE1F4904FE1F4904FE1F4904FE1FB5
S3151FFE00804904FE1F4904FE1F4904FE1F4904FE1FA5
S3151FFE00904904FE1F4904FE1F4904FE1F4904FE1F95
S3151FFE00A04904FE1F4904FE1F4904FE1F4904FE1F85
S3151FFE00B04904FE1F4904FE1F4904FE1F4904FE1F75
S3151FFE00C04904FE1F4904FE1F4904FE1F4904FE1F65
S3151FFE00D04904FE1F4904FE1F4904FE1F4904FE1F55
S3151FFE00E04904FE1F4904FE1F4904FE1F4904FE1F45
S3151FFE00F04904FE1F4904FE1F4904FE1F4904FE1F35
S3151FFE01004904FE1F4904FE1F4904FE1F4904FE1F24
S3151FFE01104904FE1F4904FE1F4904FE1F4904FE1F14
S3151FFE01204904FE1F4904FE1F4904FE1F4904FE1F04
S3151FFE01304904FE1F4904FE1F4904FE1F4904FE1FF4
S3151FFE01404904FE1F4904FE1F4904FE1F4904FE1FE4
S3151FFE01504904FE1F4904FE1F4904FE1F4904FE1FD4
S3151FFE01604904FE1F4904FE1F4904FE1F4904FE1FC4
S3151FFE01704904FE1F4904FE1F4904FE1F4904FE1FB4
S3151FFE01804904FE1F4904FE1F4904FE1F4904FE1FA4
S3151FFE01904904FE1F4904FE1F4904FE1F4904FE1F94
S3151FFE01A04904FE1F4904FE1F4904FE1F4904FE1F84
S3151FFE01B04904FE1F4904FE1F4904FE1F4904FE1F74
S3151FFE01C04904FE1F4904FE1F4904FE1F4904FE1F64
S3151FFE01D04904FE1F4904FE1F4904FE1F4904FE1F54
S3151FFE01E0EB30FE1F4904FE1F4904FE1F4904FE1F76
S3151FFE01F04904FE1F4904FE1F4904FE1F4904FE1F34
S3151FFE02004904FE1F4904FE1F4904FE1F4904FE1F23
S3151FFE02104904FE1F4904FE1F4904FE1F4904FE1F13
S3151FFE02204904FE1F4904FE1F4904FE1F4904FE1F03
S3151FFE02304904FE1F4904FE1F4904FE1F4904FE1FF3
S3151FFE02404904FE1F4904FE1F4904FE1F4904FE1FE3
S3151FFE02504904FE1F4904FE1F4904FE1F4904FE1FD3
S3151FFE02604904FE1F4904FE1F4904FE1F4904FE1FC3
S3151FFE02704904FE1F4904FE1F4904FE1F4904FE1FB3
S3151FFE02804904FE1F4904FE1F4904FE1F4904FE1FA3
S3151FFE02904904FE1F4904FE1F4904FE1F4904FE1F93
S3151FFE02A04904FE1F4904FE1F4904FE1F4904FE1F83
S3151FFE02B04904FE1F4904FE1F4904FE1F4904FE1F73
S3151FFE02C04904FE1F4904FE1F4904FE1F4904FE1F63
S3151FFE02D04904FE1F4904FE1F4904FE1F4904FE1F53
S3151FFE02E04904FE1F4904FE1F4904FE1F4904FE1F43
S3151FFE02F04904FE1F4904FE1F4904FE1F4904FE1F33
S3151FFE03004904FE1F4904FE1F4904FE1F4904FE1F22
S3151FFE03104904FE1F4904FE1F4904FE1F4904FE1F12
S3151FFE03204904FE1F4904FE1F4904FE1F4904FE1F02
S3151FFE03304904FE1F4904FE1F4904FE1F4904FE1FF2
S3151FFE03404904FE1F4904FE1F4904FE1F4904FE1FE2
S3151FFE03504904FE1F4904FE1F4904FE1F4904FE1FD2
S3151FFE03604904FE1F4904FE1F4904FE1F4904FE1FC2
S3151FFE03704904FE1F4904FE1F4904FE1F4904FE1FB2
S3151FFE03804904FE1F4904FE1F4904FE1F4904FE1FA2
S3151FFE03904904FE1F4904FE1F4904FE1F4904FE1F92
S3151FFE03A04904FE1F4904FE1F4904FE1F4904FE1F82
S3151FFE03B04904FE1F4904FE1F4904FE1F4904FE1F72
S3151FFE03C04904FE1F4904FE1F4904FE1F4904FE1F62
S3151FFE03D04904FE1F4904FE1F4904FE1F4904FE1F52
S3151FFE03E04904FE1F4904FE1F4904FE1F4904FE1F42
S3151FFE03F04904FE1F4904FE1F4904FE1FFFFFFFFFA0
S3151FFE040072B64FF000014FF000024FF000034FF09F
S3151FFE041000044FF000054FF000064FF00007B846E8
S3151FFE0420B946BA46BB46BC4604488047044885467D
S3151FFE04300448804762B600F07BF9FEE73529FE1FAA
S3151FFE044000F001207528FE1FFFF7FEBF000000000B
S3151FFE04500000000000000000000000000000000079
S3151FFE04600000000000000000000000000000000069
S3151FFE04700000000000000000000000000000000059
S3151FFE048090F800F06DE9024520F007016FF0000CB1
S3151FFE049010F0070491F820F040F049804FF0000459
S3151FFE04A06FF00700D1E9002391F840F000F1080034
S3151FFE04B082FA4CF2A4FA8CF283FA4CF3A2FA8CF36C
S3151FFE04C04BBBD1E9022382FA4CF200F10800A4FAD3
S3151FFE04D08CF283FA4CF3A2FA8CF3E3B9D1E9042327
S3151FFE04E082FA4CF200F10800A4FA8CF283FA4CF35E
S3151FFE04F0A2FA8CF37BB9D1E9062301F1200182FA18
S3151FFE05004CF200F10800A4FA8CF283FA4CF3A2FA1D
S3151FFE05108CF3002BC6D0002A04BF04301A4612BA2B
S3151FFE0520B2FA82F2FDE8024500EBD2007047D1E92E
S3151FFE0530002304F00305C4F100004FEAC50514F0BD
S3151FFE0540040F91F840F00CFA05F562EA05021CBF8E
S3151FFE055063EA050362464FF00004A9E72DE9F04F53
S3151FFE0560EFF3038410B41446256860B4EFF30885D1
S3151FFE0570256000F001B800BF0C46256885F3088884
S3151FFE058060BC256010BC4FF080752C4384F3038836
S3151FFE0590BDE8F04F02F046BB0A6882F3088802F0F8
S3151FFE05A045BB00BF2DE9F04FEFF3038410B414468D
S3151FFE05B0256860B4EFF308852560FFF7EDBF00BF22
S3151FFE05C0026882F3088808470C46256885F3088863
S3151FFE05D060BC256010BC4FF080752C4384F30388E6
S3151FFE05E0BDE8F04F704700BF12484FF47F01026807
S3151FFE05F00A43026010486FF07F4102680A4002609C
S3151FFE0600704700BF0D484FF080510160704700BF15
S3151FFE061072B60A4A4FF0006111604FF08073084AA6
S3151FFE062008490FB40FB46FF0060E704762B600DFAF
S3151FFE063008B0704720ED00E01CED00E004ED00E081
S3151FFE0640F530FE1F2D06FE1F08B5012000F08EF9A0
S3151FFE065008BD10B5044602F019FA2046FFF710FF33
S3151FFE06600146204600F0A5F902F018FA10BD00005B
S3151FFE067008B50F4B1A6801321A601B68B3F57A7FED
S3151FFE068008D30B4B00221A600A4B1B682BB1094B72
S3151FFE069000221A6000F086F908BD022000F04AF912
S3151FFE06A00521054800F085F9022002F06DFAF1E7F3
S3151FFE06B0C8010020C40100206831FE1F00B583B0AB
S3151FFE06C06B460193154B1B686BB1144B1A68019B46
S3151FFE06D09A420BD0012000F011F902F0CFF9104813
S3151FFE06E0FFF7B7FFFEE7019A0C4B1A600D4B1A6810
S3151FFE06F001321A601A680C4B9A4204D800F0DAF8D7
S3151FFE070003B05DF804FB0020064B186000F012F9DB
S3151FFE07100621064800F04DF9F0E700BFCC01002088
S3151FFE07207031FE1FC00100209F8601008C31FE1F07
S3151FFE073008B500F0CBF8002002F0BEF9002008BD78
S3151FFE074008B51E48FFF785FF1D4A13680133136060
S3151FFE07501C4B01221A606A461B4B1B6863B11A4B60
S3151FFE07601B6893420AD0012000F0C8F802F086F9F2
S3151FFE07701648FFF76EFFFEE7134B1A60032002F0C3
S3151FFE078003FA134802F03CF90E4B1B68002BFBD1F4
S3151FFE07901048FFF75EFF6B460B4A12689A4208D057
S3151FFE07A0012000F0ABF802F069F90B48FFF751FF85
S3151FFE07B0FEE70A4A13680133136008BDB831FE1FF0
S3151FFE07C0D4010020C4010020D80100209431FE1F51
S3151FFE07D0F8010020B031FE1FC031FE1FD0010020E0
S3151FFE07E008B51448FFF735FF6A46134B1B6863B1FE
S3151FFE07F0114B1B6893420AD0012000F07FF802F0CE
S3151FFE08003DF90E48FFF725FFFEE70B4B1A600C4A14
S3151FFE08101368013313600B4802F0BCF8032000F087
S3151FFE082089F8042002F0B0F9074A136801331360F2
S3151FFE083008BD00BFDC31FE1FE4010020E431FE1FB0
S3151FFE0840E0010020F8010020DC01002008B5074862
S3151FFE0850FFF7FFFE064A136801331360052002F0F9
S3151FFE086093F9044A13680133136008BD0032FE1F55
S3151FFE0870EC010020E801002008B50548FFF7E9FE58
S3151FFE0880044A136801331360062002F07DF908BD82
S3151FFE08900832FE1FF001002008B50448FFF7D9FEF7
S3151FFE08A0034A13680133136008BD00BF1032FE1FD3
S3151FFE08B0F40100207047000008B54FF4600102489E
S3151FFE08C001F002FF08BD00BF00F10F4008B500236F
S3151FFE08D0074A0121074801F095FB0021084601F052
S3151FFE08E0A5FB0549052001F0DFFEFFF7E5FF08BD65
S3151FFE08F02834FE1F2C34FE1F3034FE1F08B5012878
S3151FFE090009D003280DD000B108BD012215210848C4
S3151FFE091001F0DCFEF8E701221621054801F0D6FE9E
S3151FFE0920F2E701221721024801F0D0FEECE700BFD5
S3151FFE093000F10F4008B5012809D003280DD000B1DC
S3151FFE094008BD4FF40011084801F0CCFEF8E74FF43E
S3151FFE09508001054801F0C6FEF2E74FF4000102488A
S3151FFE096001F0C0FEECE700BF00F10F4010B50446D4
S3151FFE0970094A0A49002001F031FD094904EB8404A6
S3151FFE098004EB8404C4EB04148C80002001F0F6FDF6
S3151FFE0990002001F045FE10BD1C0600201434FE1F6C
S3151FFE09A0E400002008B54FF40071002001F09CFC06
S3151FFE09B008BD704710B58446002838D04368002B03
S3151FFE09C035D0002108E000221343194A32F81000E1
S3151FFE09D0184A42F820300131DCF800308B4226D906
S3151FFE09E0DCF8042001EB8103D05C114A32F810407B
S3151FFE09F0104850F8242022F0804240F82420DCF8CC
S3151FFE0A000400C218C05C5478937892F804E0D2783A
S3151FFE0A101B0603F0E063D20002F0080213430EF03A
S3151FFE0A2007021343002CCED04FF08042CCE710BDF9
S3151FFE0A30B834FE1F0050064030B40378002B74D125
S3151FFE0A400379002B40F08B8090F83C30002B46D06C
S3151FFE0A5090F83D20894B1B6C23F00103002A00F002
S3151FFE0A609B8001221343854A136490F83E10136C34
S3151FFE0A7023F00203002900F09180022213437F4ACE
S3151FFE0A80136490F83F10136C23F00403002900F043
S3151FFE0A90878004221343794A136490F84010136C1F
S3151FFE0AA023F0080300297DD008221343734A1364DB
S3151FFE0AB090F84110136C23F01003002974D01022F6
S3151FFE0AC013436E4A136490F84710136A23F080632C
S3151FFE0AD000296BD04FF080621343684A1362037B73
S3151FFE0AE0002B72D190F84230EBB1644B9A6E002404
S3151FFE0AF09C6690F844105A6822F48052090301F44A
S3151FFE0B0080510A435A609C6690F843305BB190F859
S3151FFE0B10453090F846205B0003F00E0343F08053EA
S3151FFE0B201343564A936630BC704745788178C27820
S3151FFE0B30524C636823F47F6363600901C9B20B439A
S3151FFE0B406360120202F4E062134363602DB14FF439
S3151FFE0B5000621343494A536072E70022F9E7057A9A
S3151FFE0B60C47981794279454B1B6923F03F037DB1D9
S3151FFE0B7001252B4374B102242343890001F00C0186
S3151FFE0B800B43120102F0300213433C4A13615BE72B
S3151FFE0B900025EEE70024EFE7002263E700226DE75C
S3151FFE0BA0002277E7002280E7002289E7002293E7EB
S3151FFE0BB09A1C00EB82029168314A42F823100133D8
S3151FFE0BC0DBB2022BF4D900230BE00023F9E722F058
S3151FFE0BD04072090601F040710A432849CA60013373
S3151FFE0BE0DBB2072B3FF67EAF9A1D00EB82025168E2
S3151FFE0BF0224AD268072BF0D801A454F823F000BF6F
S3151FFE0C00CF0BFE1F210CFE1F2F0CFE1F3D0CFE1FC2
S3151FFE0C10430CFE1F510CFE1F5F0CFE1F6D0CFE1FAD
S3151FFE0C2022F04062890601F040610A43D5E722F0B1
S3151FFE0C304052090701F040510A43CEE761F39F7206
S3151FFE0C40CBE722F44032090401F440310A43C4E7DC
S3151FFE0C5022F44022890401F440210A43BDE722F40F
S3151FFE0C604012090501F440110A43B6E722F4400279
S3151FFE0C70890501F440010A43AFE700BF0080044027
S3151FFE0C80840600200378B3B143780D498A7802F0B3
S3151FFE0C907F0283F00103DB01DBB213438B7090F9F6
S3151FFE0CA00230002B08DB06490A7902F0E00203F048
S3151FFE0CB01F0313430B71704720335BB2F3E700BF6D
S3151FFE0CC000D007400122C270002303714271837157
S3151FFE0CD0027042708270827302734373C371027213
S3151FFE0CE0427280F83020C362427743490161037521
S3151FFE0CF00377427583754FF0020C80F817C0027694
S3151FFE0D00427680F8282080F8203080F8273080F839
S3151FFE0D1021300C2180F8221080F8233080F8242001
S3151FFE0D2080F8252080F83520032180F8341080F8BE
S3151FFE0D30432080F8391080F8383080F8372080F845
S3151FFE0D40362080F83DC080F83C2080F83B3080F886
S3151FFE0D503A104FF0060C80F841C080F8403080F8FC
S3151FFE0D603F2080F83E102549C0F890102921C0F873
S3151FFE0D708C1080F8442080F8453080F8463080F885
S3151FFE0D80473080F8482080F84C2080F84B2080F8AA
S3151FFE0D904A3080F8493080F8802080F8812080F81C
S3151FFE0DA0822080F8832080F8842080F8852080F8B2
S3151FFE0DB08B2080F8502043658365C36506E003F1EB
S3151FFE0DC0160200EB8202002191600133072BF6D932
S3151FFE0DD0012280F8862080F88720002380F888303D
S3151FFE0DE080F8893080F88A3080F8942080F8952024
S3151FFE0DF080F89630704700BF00127A00EC00002084
S3151FFE0E002C2817D9392817D03F2817D0412817D095
S3151FFE0E104B2817D05A2817D00C4B33F810200C4BE3
S3151FFE0E2053F8223013F0804F01D0002070474FF445
S3151FFE0E308070704704207047042070470420704757
S3151FFE0E40042070470420704704207047B834FE1FE5
S3151FFE0E50005006402338042827D8DFE800F0030A8F
S3151FFE0E6011181F00194B1B6C13F0100F1FD00020FB
S3151FFE0E707047164B1B6C13F0080F1BD000207047D4
S3151FFE0E80124B1B6C13F0040F17D0002070470F4B2D
S3151FFE0E901B6C13F0020F13D0002070470B4B1B6CFD
S3151FFE0EA013F0010F0FD000207047042070474FF438
S3151FFE0EB0807070474FF4807070474FF48070704794
S3151FFE0EC04FF4807070474FF4807070470080044067
S3151FFE0ED0084B5B69DBB2042B07D0802B07D0012B97
S3151FFE0EE001D004207047012070470220704703205F
S3151FFE0EF0704700BF00E00740044BD3F8000110F017
S3151FFE0F00807001D0024B1868704700BF0040064034
S3151FFE0F10A006002030B585B00A46002944D0444BB2
S3151FFE0F20D3F8003113F0007F53D1414BD3F8001194
S3151FFE0F3021F40001C3F800114FF08061C3F80011C0
S3151FFE0F4000253C4B1D6000286CD0002D6AD1137AFC
S3151FFE0F50517A03F00703090201F4E0610B43344C97
S3151FFE0F60C4F80431D379907951791B0103F030030C
S3151FFE0F70C00000F008000343890001F004010B4383
S3151FFE0F80C4F808311379012B31D0022B3BD013B392
S3151FFE0F901268284B1A60284CFFF7AEFF002840D177
S3151FFE0FA0002C3ED0013CF7E700238DF804308DF868
S3151FFE0FB00C3001228DF808208DF809208DF80520AA
S3151FFE0FC08DF8063002238DF807301C4B00936A46B8
S3151FFE0FD0A5E70225B7E7137B3BB14FF4000343F0AA
S3151FFE0FE001031349C1F80031D2E70023F7E7137B4C
S3151FFE0FF03BB14FF4000343F001130D49C1F8003115
S3151FFE1000C6E70023F7E7137B4BB14FF4000343F408
S3151FFE1010403343F001030649C1F80031B8E7002308
S3151FFE1020F5E714B1284605B030BD0325FAE700BF24
S3151FFE103000400640A006002088E7300000127A0016
S3151FFE1040064BD3F8000210F0807004D0D3F80802C6
S3151FFE105010F0010000D170470148FCE70040064032
S3151FFE106000127A0030B583B00B46002939D02C4AC0
S3151FFE1070D2F8002212F0007F43D1294AD2F800127D
S3151FFE108021F40001C2F800120025C2F80052002802
S3151FFE109040D0002D3ED15A78997802F007020902F8
S3151FFE10A001F4E0610A431E49C1F804221A7802F0D0
S3151FFE10B00102C1F80822187959799A7918B30323C0
S3151FFE10C019B304210B4312B34FF400021343144A00
S3151FFE10D0C2F800326424FFF7B3FFD0B9CCB1013C8E
S3151FFE10E0F9E700228DF8042001238DF805308DF8CF
S3151FFE10F006208DF801308DF802308DF800306B46D4
S3151FFE1100B5E70225C3E70123DAE70021DAE7002266
S3151FFE1110DCE714B1284603B030BD0325FAE700BF4E
S3151FFE112000400640054BD3F8000310F0807000D137
S3151FFE11307047D3F808330248FAE700BF004006405F
S3151FFE1140006CDC0230B583B00B46A9B3274AD2F832
S3151FFE1150002312F0007F3DD1244AD2F8001321F45A
S3151FFE11600001C2F800134FF08061C2F8001300257C
S3151FFE1170B8B3B5BB5A78997802F00702090201F493
S3151FFE1180E0610A431949C1F804231A7802F00302E3
S3151FFE1190C1F8082359799A79F1B10123F2B14FF4B7
S3151FFE11A000021343114AC2F800336424FFF7BAFF45
S3151FFE11B0B0B9ACB1013CF9E701238DF80530002229
S3151FFE11C08DF806208DF801308DF802308DF800203F
S3151FFE11D06B46BBE70225CBE70923DFE70022E0E7E5
S3151FFE11E014B1284603B030BD0325FAE7004006407A
S3151FFE11F008B50E4BD3F8000610F0807000D108BD5F
S3151FFE1200FFF77AFE0028FAD0084AD2F80836C3F34B
S3151FFE121002230133B0FBF3F0D2F80836C3F30443BF
S3151FFE1220103303FB00F04008E9E700BF004006400D
S3151FFE123030B585B00C46B1B1414BD3F8003613F02D
S3151FFE1240007F23D13E4BD3F8002622F40002C3F8BB
S3151FFE125000264FF08062C3F80026002500B1BDB1FF
S3151FFE1260284605B030BD00238DF804308DF80B30AF
S3151FFE127001228DF808208DF809208DF805300722EA
S3151FFE12808DF806208DF8073001ACD5E70225E5E778
S3151FFE1290FFF732FE2379627903F00703120202F487
S3151FFE12A0E06213432648C0F804366278A178D0F868
S3151FFE12B0083623F4F81323F4E063120202F4E06205
S3151FFE12C0090401F4F8110A431343C0F808362378BC
S3151FFE12D0012B11D0022B1BD013B14FF47A7426E0CB
S3151FFE12E0E3793BB14FF4000343F00103144AC2F8FE
S3151FFE12F00036F2E70023F7E7E3793BB14FF400032D
S3151FFE130043F001130E4AC2F80036E6E70023F7E75D
S3151FFE1310E3794BB14FF4000343F4403343F001032B
S3151FFE1320074AC2F80036D8E70023F5E7013CFFF768
S3151FFE13305FFF08B9002CF9D1002C91D103258FE749
S3151FFE13400040064008B50138052810D8DFE800F032
S3151FFE13500306090F0F0CFFF7CFFD09E0FFF770FE1F
S3151FFE136006E0FFF7DFFE03E0FFF742FF00E0002087
S3151FFE137008BD00002DE9F04106460C468D786F1C10
S3151FFE13804A78013205FB02280B78013305FB03352C
S3151FFE1390C878FFF7D7FF0009022E3CD0032E6ED06A
S3151FFE13A0012E02D00020BDE8F081E17801EB41025B
S3151FFE13B0564B53F822301B0903FB07F78742C0F033
S3151FFE13C092801346514A02EB83035A68120908FBA1
S3151FFE13D002F28242C0F0898001EB41034B4A02EBC7
S3151FFE13E083039B681B0905FB03F383427FD3A07808
S3151FFE13F0627824780B0603F07063010401F47021F2
S3151FFE14000B431201D2B2134304F00F021343404A99
S3151FFE141053610020C7E7E17801EB41023D4B53F8CC
S3151FFE142022301B0903FB07F7874262D31346394A4D
S3151FFE143002EB83035A68120908FB02F282425AD351
S3151FFE144001EB4103334A02EB83039B681B0905FB32
S3151FFE145003F3834251D3A078627824780B0603F0F8
S3151FFE14607063010401F470210B431201D2B21343C0
S3151FFE147004F00F021343264A9361002093E7E17897
S3151FFE148001EB4102244B53F822301B0903FB07F7DE
S3151FFE1490874234D31346204A02EB83035A68120946
S3151FFE14A008FB02F282422CD301EB41031A4A02EBDE
S3151FFE14B083039B681B0905FB03F3834223D3A07893
S3151FFE14C0627824780B0603F07063010401F4702121
S3151FFE14D00B431201D2B2134304F00F0213430C4AFD
S3151FFE14E0D36100205FE701205DE701205BE7012056
S3151FFE14F059E7012057E7012055E7012053E7012051
S3151FFE150051E701204FE701204DE700BFC435FE1FFF
S3151FFE1510004006401836FE1F7035FE1F10B50446E6
S3151FFE1520FFF7D6FC2146FFF725FF58B90A22013AD7
S3151FFE1530064B1B69C3F30363E178994201D0002A68
S3151FFE1540F5D102B110BD0320FCE700BF00400640E7
S3151FFE155000B583B0104B1B69C3F30363032B03D183
S3151FFE1560002003B05DF804FBFFF7DCFD28B9002160
S3151FFE15700120FFF7E7FD0028F3D103238DF807307F
S3151FFE158000228DF8062001228DF805208DF80430E5
S3151FFE159001A8FFF7C3FFE4E70040064070B582B01F
S3151FFE15A004460146C078FFF75DFD0546E8B1FFF725
S3151FFE15B08FFC02282CD003282DD0012825D00026EB
S3151FFE15C085B9F378032B70D194F8283033BB0125E8
S3151FFE15D0637F0BB1012D31D0E3780BB1012D3CD0CA
S3151FFE15E0002D4AD0284602B070BD04F11001607F5F
S3151FFE15F0FFF790FC05460028D9D104F1200194F887
S3151FFE16002800FFF715FE0546D1E704F13606D7E794
S3151FFE161004F13A06D4E704F13E06D1E706238DF818
S3151FFE1620073002238DF8063001238DF805308DF81D
S3151FFE1630043001A8FFF772FF0546C9E701238DF89F
S3151FFE1640073000228DF806208DF805308DF8043000
S3151FFE165001A8FFF763FF0546BEE702238DF8073095
S3151FFE166000238DF806308DF8053001238DF80430E2
S3151FFE167001A8FFF753FF0546B2E7E11DA07BFFF763
S3151FFE168061FD05460028ADD1F3788DF80730B37896
S3151FFE16908DF8063073788DF8053033788DF8043063
S3151FFE16A001A8FFF73BFF05469CE78DF80730B37889
S3151FFE16B08DF8063073788DF8053033788DF8043043
S3151FFE16C001A8FFF72BFF054600288BD1E11DA07B46
S3151FFE16D0FFF738FD054685E710B50446A0B3FFF7AD
S3151FFE16E037FF38B388BB194B00221A6094F8303087
S3151FFE16F013B1E26A154B1A6094F8353053B194F85C
S3151FFE1700342013490B6A23F07063120602F07062CF
S3151FFE171013430B6294F84330BBB104F1360101202B
S3151FFE1720FFF728FE50B180B904F13E010320FFF7F3
S3151FFE173021FE0AE02046FFF731FFD3E704F13A0107
S3151FFE17400220FFF717FEEEE7002010BD80060020E1
S3151FFE17500040064010B504461B4B1B69C3F30363CB
S3151FFE1760013B052B10D8DFE803F00306090F0F0C0C
S3151FFE1770FFF7C2FB09E0FFF763FC06E0FFF7D2FCAB
S3151FFE178003E0FFF735FD00E000200F4B1B69C3F397
S3151FFE179003430133B0FBF3F0012C04D0022C0AD015
S3151FFE17A004B1002010BD084B1B69C3F3031301339D
S3151FFE17B0B0FBF3F0F6E7044B1B6903F00F0301338F
S3151FFE17C0B0FBF3F0EEE700BF0040064008B50A4B3C
S3151FFE17D0D3F8D831C3F3807013F0804F07D0074B71
S3151FFE17E01B6813F0804F03D00120FFF7B3FF08BD20
S3151FFE17F00020FFF7AFFFFAE70050064000600740E4
S3151FFE180008B50F4B1B6AC3F30363062B15D8DFE818
S3151FFE181003F004080B0E141411000220FFF79AFFA3
S3151FFE182008BDFFF769FBFBE7FFF70AFCF8E7FFF7C3
S3151FFE183079FCF5E7FFF7DCFCF2E70020F0E700BFD7
S3151FFE18400040064008B519B1012931D0002008BD58
S3151FFE18500438032857D8DFE800F010021922FFF7D5
S3151FFE186061FC02462A4BD3F8040300F0070000284A
S3151FFE1870EDD0431E22FA03F0E9E7FFF7E1FB02462E
S3151FFE1880234BD3F8040200F00700F0E7FFF734FB03
S3151FFE189002461F4BD3F8040100F00700E7E7FFF7E8
S3151FFE18A0A7FC02461A4BD3F8040600F00700DEE734
S3151FFE18B00438032829D8DFE800F00B02141DFFF7B2
S3151FFE18C031FC0246124BD3F80403C0F30220CEE7C7
S3151FFE18D0FFF7B6FB02460E4BD3F80402C0F30220F7
S3151FFE18E0C5E7FFF709FB0246094BD3F80401C0F310
S3151FFE18F00220BCE7FFF77CFC0246054BD3F8040625
S3151FFE1900C0F30220B3E70020A1E700209FE700BF38
S3151FFE19100040064008B5104B1B69C3F30113032B8A
S3151FFE192018D8DFE803F002070F1200210620FFF783
S3151FFE193089FF08BD084B186910F00200F9D04FF455
S3151FFE1940FA40F6E7054B1868F3E700210520FFF777
S3151FFE195079FFEEE70020ECE70080044080060020BA
S3151FFE196008B50D4B186A10F080600ED003F538339C
S3151FFE19701B6813F0805F09D000210520FFF762FF69
S3151FFE1980064B5B6A0133B0FBF3F008BD002107204F
S3151FFE1990FFF758FFF4E700BF0080044000600740D2
S3151FFE19A008B5FFF7DDFF400808BD000008B5FFF7C5
S3151FFE19B0D7FF034B1B6813F0005F00D0400808BD1E
S3151FFE19C00060074008B5044B186810F0005000D1A0
S3151FFE19D008BDFFF7C5FFFBE700600740104B1B69FD
S3151FFE19E0C3F38103022B07D0032B0DD00BB10020AF
S3151FFE19F070474FF4FA307047094B186910F0020012
S3151FFE1A00F6D04FF4FA407047054B186910F00200E6
S3151FFE1A10EED0186910F00100EAD04FF47A707047C5
S3151FFE1A200080044008B5284B586810F400601AD091
S3151FFE1A305B68C3F303130F2B44D8DFE803F00B4396
S3151FFE1A4015431A371F24282D083A313D34404FF4CB
S3151FFE1A50FA3001E0FFF7D4FE1B4B5B68C3F302238C
S3151FFE1A600133B0FBF3F008BD01210620FFF7EAFEA6
S3151FFE1A70F2E701210420FFF7E5FEEDE70121052030
S3151FFE1A80FFF7E0FEE8E70020FFF764FEE4E701212B
S3151FFE1A900720FFF7D7FEDFE70120FFF75BFEDBE739
S3151FFE1AA0FFF79CFFD8E7FFF735FFD5E7FFF778FF70
S3151FFE1AB0D2E7FFF78BFECFE7FFF778FFCCE7FFF7FF
S3151FFE1AC081FFC9E70020C7E70080044010B50C461A
S3151FFE1AD0112878D8DFE800F00911171D22272C31AF
S3151FFE1AE0363A3F464D545B6269700020FFF732FE61
S3151FFE1AF00346002004B1236010BD0120FFF72AFE16
S3151FFE1B0003460020F6E70220FFF724FE03460020C9
S3151FFE1B10F0E7FFF787FF03460020EBE7FFF790FA94
S3151FFE1B2003460020E6E7FFF7FDFA03460020E1E73E
S3151FFE1B30FFF7E2F903460020DCE7FFF759FB0346F2
S3151FFE1B400020D7E7214B1B680020D3E7FFF758FE7F
S3151FFE1B5003460020CEE700210420FFF773FE03464F
S3151FFE1B600020C7E701210420FFF76CFE0346002075
S3151FFE1B70C0E700210520FFF765FE03460020B9E7F3
S3151FFE1B8001210520FFF75EFE03460020B2E7002176
S3151FFE1B900620FFF757FE03460020ABE7012106206E
S3151FFE1BA0FFF750FE03460020A4E700210720FFF79C
S3151FFE1BB049FE034600209DE701210720FFF742FE4F
S3151FFE1BC00346002096E70023042093E780060020A5
S3151FFE1BD010B50C46A0F11D030E2B5BD8DFE803F0F4
S3151FFE1BE0080F1420323F5A5A5A5A5A464B5055001E
S3151FFE1BF0FFF718FF0346002004B1236010BDFFF751
S3151FFE1C0089FE03460020F7E72C4B9B78DB0902D0A3
S3151FFE1C1000231846F0E7FFF7E1FE03460020EBE739
S3151FFE1C20264B9B78DB0939D1254B1B6913F0020323
S3151FFE1C3037D0234B1B6913F0010334D04FF47A734D
S3151FFE1C400020D9E71D4B9B78DB092ED11C4B1B6948
S3151FFE1C5013F002032CD04FF4FA430020CCE7174BA8
S3151FFE1C609B78DB0926D000231846C5E7FFF798FEAB
S3151FFE1C7003460020C0E7FFF7A9FD03460020BBE78A
S3151FFE1C80FFF794FE03460020B6E7FFF79BFE0346CB
S3151FFE1C900020B1E7FFF7DEF80023ADE70023184665
S3151FFE1CA0AAE70020A8E70020A6E700231846A3E719
S3151FFE1CB00020A1E74FF4FA3300209DE700D007402E
S3151FFE1CC00080044070B582B004460D460023019382
S3151FFE1CD0A0F11503072B65D8DFE803F004101C28B7
S3151FFE1CE034404C58444BDB68C3F30163022B5ED86A
S3151FFE1CF0424A52F823300193002659E03E4BDB68D9
S3151FFE1D00C3F38163022B63D83C4A52F823300193F7
S3151FFE1D1000264DE0384BDB68C3F30173022B59D8FF
S3151FFE1D20364A52F823300193002641E0324BDB68D8
S3151FFE1D309A0FB3F1404F4FD2304B53F822300193D7
S3151FFE1D40002635E02C4BDB68C3F30143022B45D837
S3151FFE1D502A4A52F823300193002629E0264BDB68D8
S3151FFE1D60C3F38143022B3BD8244A52F823300193F7
S3151FFE1D7000261DE0204BDB68C3F30153022B31D82F
S3151FFE1D801E4A52F823300193002611E01A4BDB68D8
S3151FFE1D90C3F38153022B27D8184A52F823300193D7
S3151FFE1DA0002605E001A9FFF713FF064600E0002601
S3151FFE1DB0233CE4B2042C00D8C6B1019B1BB9042EEA
S3151FFE1DC001D04FF4807605B12B60304602B070BD50
S3151FFE1DD00026EDE70026EBE70026E9E70026E7E704
S3151FFE1DE00026E5E70026E3E70026E1E70120FFF7E9
S3151FFE1DF0B1FC0190E1E700BF00800440840600208D
S3151FFE1E0008B54338072825D8DFE800F004080C106C
S3151FFE1E1014181C201520FFF755FF08BD1620FFF7C7
S3151FFE1E2051FFFAE71720FFF74DFFF6E71820FFF7DA
S3151FFE1E3049FFF2E71920FFF745FFEEE71A20FFF7E6
S3151FFE1E4041FFEAE71B20FFF73DFFE6E71C20FFF7F2
S3151FFE1E5039FFE2E70020E0E730B583B000230193A8
S3151FFE1E60214B33F81030214A52F82350C5F3C005D3
S3151FFE1E7052F8234004F00704AC421DD352F8232028
S3151FFE1E8012F0804F18D0194A52F82330C3F302635B
S3151FFE1E90013B052B22D8DFE803F003121721211C75
S3151FFE1EA00620FFF7CFFC01900134019BB3FBF4F430
S3151FFE1EB0019405FB04440194019803B030BD042030
S3151FFE1EC0FFF7C0FC0190EFE70520FFF7BBFC019073
S3151FFE1ED0EAE70720FFF7B6FC0190E5E701A9FFF742
S3151FFE1EE08FFF0024E0E700BFB834FE1F00500640F8
S3151FFE1EF0F8B507460C46FEF783FF0646002848D16F
S3151FFE1F00274BDD5D15F0200F16D115F0400F1CD1A6
S3151FFE1F1015F0800F22D10023002E3FD115F0180F8A
S3151FFE1F2031D015F0080F22D1002315F0100F24D142
S3151FFE1F3083BB4FF480762DE00120FFF70BFC034693
S3151FFE1F400028E9D14FF48076E6E70020FFF702FC72
S3151FFE1F5003460028E0D14FF48076DDE70220FFF727
S3151FFE1F60F9FB03460028D7D14FF48076D4E700212C
S3151FFE1F703846FFF771FF0346D7E701213846FFF7BD
S3151FFE1F806BFF0346D4E7592F04D1FFF71FFC034609
S3151FFE1F9000E0002304B123603046F8BD0023F9E7B5
S3151FFE1FA06C36FE1F30B5A7B0044638B12046FFF784
S3151FFE1FB093FB054638B1284627B030BD6846FEF767
S3151FFE1FC081FE6C46F2E704F14400FEF735FD04F18F
S3151FFE1FD08C00FEF7EFFC04F19400FEF753FEEAE7D2
S3151FFE1FE008B5112805D92B2806D95A2807D9042042
S3151FFE1FF001E0FFF76BFD08BDFFF764FEFBE7FFF78A
S3151FFE200077FFF8E710B4044C20602171A26023739A
S3151FFE20106373002010BC70479006002008B5FFF7BB
S3151FFE2020DFFF08BD08B5FFF7BDFF08BD2DE9F0416F
S3151FFE203082B006460D468DF804008DF8051000F099
S3151FFE20402BFB3A4B1A7B5A7301238DF8063000245D
S3151FFE205001E00134E4B2354B1B7BA34215D9334B4A
S3151FFE20609B6853F82430002BF3D01A79022AF0D03E
S3151FFE20701A68996801A890470028EAD02B4B5C7313
S3151FFE2080002DE6D140F2031700E000276FB1012DA8
S3151FFE20900BD0264B1B7B002B41D000228DF8062032
S3151FFE20A0A3422FD1013CE4B22CE0DFF88080D8F8A2
S3151FFE20B0003053F82600FFF7B5FF074688F8056080
S3151FFE20C00028E6D102238DF80630044605E010B13E
S3151FFE20D0164B5C730DB30134E4B2144B1B7BA34248
S3151FFE20E01DD9124B9B6853F82430002BEFD01A795B
S3151FFE20F0012AECD01A68996801A89047E7E774B1E0
S3151FFE2100013CE4B2094B9B6853F82430002BF6D0F2
S3151FFE21101A68996801A89047F1E74FF4827700F095
S3151FFE2120ADFA384602B0BDE8F08100BF900600202A
S3151FFE21306C4B53F820304A784AB98A78002A40F009
S3151FFE21409580CA78002A00F09380012200E00122C2
S3151FFE2150087810B1002A40F0C18010B9002A00F09D
S3151FFE2160BF80002800F08680D3F88C2042F4806260
S3151FFE2170C3F88C20D3F88C2042F40062C3F88C205F
S3151FFE2180D3F88C2042F48052C3F88C20D3F88C20CF
S3151FFE219042F40072C3F88C20C87AD3F88C2022F43E
S3151FFE21A08072000200F480700243C3F88C20D3F8BD
S3151FFE21B08C2042F08002C3F88C204A78002A7ED0FB
S3151FFE21C09A6D42F010029A658A78002A7CD09A6D23
S3151FFE21D042F020029A65CA78002A7AD09A6D42F09A
S3151FFE21E040029A6508799A6D22F00202400000F0BD
S3151FFE21F0020002439A6548799A6D22F00102024354
S3151FFE22009A650A7A101E18BF01209A6D22F00802DF
S3151FFE221042EAC0029A658879D3F88C2022F0100212
S3151FFE2220000100F010000243C3F88C20C879D3F8D2
S3151FFE22308C2022F02002400100F020000243C3F84A
S3151FFE22408C20487AD3F88C2022F00402800000F0FE
S3151FFE225004000243C3F88C20897AD3F88C2022F01F
S3151FFE226001020A43C3F88C200020704701226FE744
S3151FFE227000226DE7D3F88C2042F48022C3F88C200F
S3151FFE2280D3F88C2042F40022C3F88C20D3F88C207E
S3151FFE229042F48012C3F88C20D3F88C2042F400320D
S3151FFE22A0C3F88C20CA7A101E18BF0120D3F88C20C3
S3151FFE22B022F4803242EA0042C3F88C2077E79A6DF9
S3151FFE22C022F010029A657FE79A6D22F020029A6528
S3151FFE22D081E79A6D22F040029A6583E701207047D7
S3151FFE22E001207047C836FE1F224B53F82000CAB284
S3151FFE22F011F4007F04D0036823F4007303600368A0
S3151FFE230011F4807F10D111F4806F04D0036823F07F
S3151FFE231080030360036811F4006F03D0C36E23F0BE
S3151FFE23208003C366002314E0436F23F081034367D4
S3151FFE2330436F23F082034367436F23F08403436790
S3151FFE2340436F23F088034367436FDCE7520801336D
S3151FFE2350DBB2072B0CD812F0010FF7D0016D4FF031
S3151FFE2360010C0CFA03FC21EA0C010165016DEDE778
S3151FFE2370704700BFC836FE1F10B582B0144B53F808
S3151FFE2380203000220192134A52F820201B6803F0C8
S3151FFE2390070301249C401378022B0FD0032B07D073
S3151FFE23A0012B10D0E4B20198B0FBF4F002B010BDC1
S3151FFE23B001A9094B185CFFF731FEF3E701A91E20A1
S3151FFE23C0FFF72CFEEEE701A90020FFF727FEE9E740
S3151FFE23D0C836FE1FA4060020E836FE1FF8B50546C2
S3151FFE23E00E461446344B53F82070344B53F82030A8
S3151FFE23F013B101242046F8BD8B7B13700023537047
S3151FFE240093802E4A42F8204012E0191D04EB41012B
S3151FFE241000228A80991D04EB81014A6003F10E0199
S3151FFE242004EB81014A60E11881F85C200133DBB2BF
S3151FFE2430072BEAD9384600F051F8717B384600F073
S3151FFE244041F82846FFF798FFA060327B931EDBB24A
S3151FFE2450022B03D9082A01D0002404E03146284660
S3151FFE2460FFF766FE0446727CFB6E23F04003920165
S3151FFE247002F040021343FB66F27BD7F8843023F04B
S3151FFE2480C0039201D2B21343C7F88430337C4BB1DB
S3151FFE24903B6843F480733B60094B33F9150000F02C
S3151FFE24A0D5F8A7E73B6823F480733B60044B33F9EB
S3151FFE24B0150000F0D7F89DE7C836FE1FA4060020BC
S3151FFE24C0F036FE1F436D43F001034365036823F099
S3151FFE24D0070301F007010B430360704710B4436FF8
S3151FFE24E000234367042242650268036043608360DC
S3151FFE24F0C364026D03658365C365036643668366B0
S3151FFE2500C26EC36603678367C367C0F88030C0F8B1
S3151FFE25108430C0F88830C0F88C30C0F89030C0F8D0
S3151FFE25209430C0F89830C0F89C30134B984203D0B5
S3151FFE253003F58053984202D10023C0F800320023D0
S3151FFE254006E0803100EB810100224A600133DBB2D7
S3151FFE2550072B0FD819465A1C00EBC20254680024DB
S3151FFE256054609460044A9042EBD002F5805290422A
S3151FFE2570ECD1E6E710BC70470090034030B4264B03
S3151FFE258053F82040254B53F82050002D40D06B7832
S3151FFE2590002B3FD1226822F018022260226822F405
S3151FFE25A00072226022684888E26C120C12040243F3
S3151FFE25B0E2648888A268120C12040243A260D4F851
S3151FFE25C0802022F00102C4F880200BE0013304EBC9
S3151FFE25D0C302506820F004005060506820F00800C7
S3151FFE25E05060DBB2072BF1D90B78062B06D0072BD3
S3151FFE25F009D00B786B70002030BC7047236823F020
S3151FFE260020032360F5E7236843F020032360F0E7EA
S3151FFE26100120F1E70120EFE7C836FE1FA4060020C2
S3151FFE2620084B53F82010084B53F820301A780B68C6
S3151FFE263023F01803D20002F0180213430B6000208A
S3151FFE2640704700BFC836FE1FA406002000F01F02FB
S3151FFE2650400901239340024A42F82030704700BFCB
S3151FFE266000E100E000F01F024009012393402030E5
S3151FFE2670014A42F82030704700E100E0054B1B6817
S3151FFE2680002B04DD013B034A1360002B00DD704760
S3151FFE269062B6FCE7C406002072B6024A136801330F
S3151FFE26A013607047C406002070B505460E4600240B
S3151FFE26B006E004EB440006EBC00000F04DF80134C3
S3151FFE26C0AC42F6D3002070BD4161704703684FF0E0
S3151FFE26D0010C0CFA01FC23EA0C0302FA01F10B436F
S3151FFE26E003607047C1607047194B984204D0194B5F
S3151FFE26F0984220D0FF207047102927D8DFE801F027
S3151FFE2700090C26262626262626262626260F1215B9
S3151FFE2710180042F00100704742F00200704742F077
S3151FFE27200400704742F00800704702F00E00704723
S3151FFE273002F00D00704719B1012904D0FF20704722
S3151FFE274002F00B00704702F007007047FF2070472C
S3151FFE275000A0044000B0044070B5044600686168DE
S3151FFE276050F82150237A012B43D0022B46D0002B43
S3151FFE27703CD025F01005627A120102F010022A43A0
S3151FFE278022F04002A37A9B0103F04003134323F476
S3151FFE2790E065E37A082B34D01B0203F4E0632B4378
S3151FFE27A023F40043227BD20392B2134323F47023F6
S3151FFE27B0627B120402F470221343A27B0AB143F01A
S3151FFE27C080732268616842F821302168D1F8C020E3
S3151FFE27D060680123834022EA0302E37B834013439F
S3151FFE27E0C1F8C030E37A012B21D070BD25F002055A
S3151FFE27F0BFE725F0010242F00205BAE745F00305E1
S3151FFE2800B7E71B4B5A6802F00F02FFF76DFFFF2853
S3151FFE28100BD0174B5A6822F00F025A605A6800F007
S3151FFE28200F00104358600023B6E70023B4E7216963
S3151FFE28304A69237D33B1012B0AD0012B0DD02369A3
S3151FFE28405A61D2E765680120A84022EA0002F4E732
S3151FFE285065680120A8400243EFE76668607D0B6846
S3151FFE28600125B54023EA0503B04003430B60E6E7A7
S3151FFE287000800440214B224903E013F8012B01F887
S3151FFE2880012B204A9342F8D11F4B204903E013F830
S3151FFE2890012B01F8012B1E4A9342F8D11D4B02E074
S3151FFE28A0002203F8012B1C4A9342F9D11B4B1C49EC
S3151FFE28B003E013F8012B01F8012B1A4A9342F8D1B4
S3151FFE28C0194A1A4B9A4212D0002306E0174A52F8AB
S3151FFE28D02310154A42F823100133154AB3EB920F04
S3151FFE28E0F4D3114A4FF0E023C3F8082D70470F4A61
S3151FFE28F04FF0E023C3F8082D704700BF0837FE1FB1
S3151FFE2900000000200837FE1F0837FE1F0837FE1F70
S3151FFE29100837FE1FC0010020C80600200000002049
S3151FFE292000000020000000200000FE1F0000FE1F0A
S3151FFE293000000000084B094A5A605A6842F22012EC
S3151FFE29401A604FF6FF729A60054AD2F8003843F4B2
S3151FFE2950F803C2F8003870470020054020C528D965
S3151FFE296000D000404FF0E023054A5A611A6942F033
S3151FFE297002021A611A6942F005021A61704700BF08
S3151FFE2980FF52070008B5024BD86800F00DFB08BDC5
S3151FFE29902032FE1FF0B583B0064658B3164B1B6892
S3151FFE29A01D68EFF311842309013B072B02D98023F0
S3151FFE29B083F311882B7C012B06D0012024F00F04F4
S3151FFE29C084F3118803B0F0BD73681BB1013B7360BE
S3151FFE29D00020F3E701A9094800F03AFA074600224C
S3151FFE29E00199304600F098F93946284600F006FB55
S3151FFE29F00020E3E70E20E5E72032FE1F4832FE1FCA
S3151FFE2A0010B50246E8B1EFF311842309013B072BEC
S3151FFE2A1002D9802383F31188116849B10B681360AD
S3151FFE2A20094800F027FA30B1074800F081FA02E0A4
S3151FFE2A3053680133536024F00F0484F3118800207A
S3151FFE2A4010BD0E20FCE700BF4832FE1F036803229F
S3151FFE2A501A74997472B6FEE708B50B7F33B9EFF396
S3151FFE2A60108272B64A6101330B7708BDFF2B02D067
S3151FFE2A7001330B77F9E71921FFF7E8FF024B1B68B6
S3151FFE2A8072B601229A7770472032FE1F08B502489A
S3151FFE2A900168FFF7E1FF08BD2032FE1F054B1A68CE
S3151FFE2AA0137F33B1013BDBB2137713B9536983F33C
S3151FFE2AB0108870472032FE1F2DE9F04F83B0064661
S3151FFE2AC02F4B1D68EFF311884FEA1813013B072B97
S3151FFE2AD002D9802383F311882B7C03F0FF074BB1AA
S3151FFE2AE001271FB128F00F0888F31188384603B057
S3151FFE2AF0BDE8F08F234A4FF0E023C3F8082D00F000
S3151FFE2B00AAFAFFF72FFF1E4CA368019301232B740E
S3151FFE2B106E74FDF799FDD4F810A005F1040B0AEBB0
S3151FFE2B20C603D3F80490002412E05AF8363053F841
S3151FFE2B302420936819780131197001219970A968AB
S3151FFE2B400B68AB6000230B60584600F007F9013493
S3151FFE2B504C45EAD32B7CDBB2012B0DD02B7CDBB293
S3151FFE2B60022BBED1019C61680A462046FDF71AFD5F
S3151FFE2B70204600F016F9B4E702232B74EEE700BFDA
S3151FFE2B802032FE1F0000FE1F70B5144B9B68984235
S3151FFE2B901FD2124B5B6853F82060337C012B1AD869
S3151FFE2BA0EFF311852B09013B072B02D9802383F3F4
S3151FFE2BB01188304600F0EAF8044628B125F00F05C5
S3151FFE2BC085F31188204670BD3146044800F018F97A
S3151FFE2BD0F4E70324F6E70324F4E700BF4832FE1F9B
S3151FFE2BE008B50E4B1B6800225A771A7F22B10022A8
S3151FFE2BF01A775A6982F310889A7F12B100229A7742
S3151FFE2C0062B6EFF311831B09013B072B02D9802303
S3151FFE2C1083F3118802494068FDF7D2FC2032FE1F5E
S3151FFE2C206530FE1F836804229A70704738B50446C6
S3151FFE2C3083685D78FFF7F6FFFF2D06D015F0800F30
S3151FFE2C4008D1002383F3118862B66369984720462D
S3151FFE2C50FFF7C6FFC5F10F052D01EDB285F31188EE
S3151FFE2C60F2E7000010B5EFF311842309013B072B92
S3151FFE2C7002D9802383F311880B4800F059F924F0FB
S3151FFE2C800F0484F31188094B1B681B7CDBB2022BD6
S3151FFE2C9005D1064B5B68002BF5D09847F3E7034B30
S3151FFE2CA0986800F0CAF910BD4832FE1F2032FE1F7B
S3151FFE2CB04B689A68D0F80CC0C1F800C0C1600360AB
S3151FFE2CC05B7E5178994200D25370704738B50246E3
S3151FFE2CD00B4600680968C46894B16468B1B1A268FE
S3151FFE2CE092F801E04D68AD6895F801C0E6450FD232
S3151FFE2CF0022595700A681A60FFF7DAFF204638BD6F
S3151FFE2D0041B19468A26802259570F3E70C46F5E774
S3151FFE2D100024F3E70C46F1E770B44B689C68164631
S3151FFE2D2022B193F818C00368002507E094F801C086
S3151FFE2D30F9E76278624508D31D461B682BB15A68B0
S3151FFE2D409468002EF5D0127EF4E725B12960002087
S3151FFE2D500B6070BC704701600120F9E708B54A6039
S3151FFE2D600122FFF7D9FF08BD70B505460468E66860
S3151FFE2D703368E360FFF7AAFFE36808B1304670BD0C
S3151FFE2D8013B15B682360F9E7AB68FBE782681378CC
S3151FFE2D90817E8B4203D201331370002070470420BD
S3151FFE2DA070478268037E53701378013BDBB2137044
S3151FFE2DB00BB99370704701239370704708B502468F
S3151FFE2DC00548436853F822108A6813780133137037
S3151FFE2DD0002200F0BDF808BD4832FE1F08B50B469F
S3151FFE2DE0917819B9012191700021916081680A6855
S3151FFE2DF0826000220A601A460430FFF7AFFF08BD45
S3151FFE2E0038B58A68114B1B681868846894F801E008
S3151FFE2E1092F801C0E64513D29A6815689D60002593
S3151FFE2E2015604FF0020C84F802C05160DC68146016
S3151FFE2E30DA6019608B689D6000F0E0F8012038BDEE
S3151FFE2E401846FFF7CBFF0020F9E700BF2032FE1F13
S3151FFE2E5070B50C4606480568294651F8046BFFF700
S3151FFE2E6083FF2060B36803229A70286870BD00BF77
S3151FFE2E702032FE1F38B54A6894680B4B1D68022325
S3151FFE2E80A370137E6370281DFFF768FF012801D00C
S3151FFE2E90002038BD60782B689B685B78984294BF8C
S3151FFE2EA000200120F5E700BF2032FE1F2DE9F0416D
S3151FFE2EB01E4B1C682568AE680D60B378042B18D0B0
S3151FFE2EC0E1680B68E3602B7E73700123B370337862
S3151FFE2ED0012B23D0231D2A461D461846FFF73EFF0C
S3151FFE2EE029461248FFF7F2FED8B127683846BDE8D5
S3151FFE2EF0F081211D0D48FFF737FF80462768BD422B
S3151FFE2F0008D02846FFF74DFFA368C8F80030C4F85F
S3151FFE2F100880EBE73378013B3370F5E70023B36098
S3151FFE2F20D8E7E3685F682760E0E700BF2032FE1F31
S3151FFE2F3010B506480468211DFFF7C8FE20B121689B
S3151FFE2F4000F05CF8012010BD0020FCE72032FE1FBA
S3151FFE2F5038B5144B1B6818688468DD6894F802C080
S3151FFE2F60BCF1040F12D08C6891F819C094F801E0D9
S3151FFE2F70E64501D284F801C0196062B1DA60DA68EB
S3151FFE2F805160DB681D6000F039F838BD4FF0020C4A
S3151FFE2F9084F802C0E7E79A6814689C6000241460F0
S3151FFE2FA0DA60ECE72032FE1F10B4046861684368DE
S3151FFE2FB0994209D30021616022681AB113685B68C2
S3151FFE2FC08B4204D010BC704701316160F4E7134693
S3151FFE2FD018684FF0030C80F808C09C4603681BB1A7
S3151FFE2FE0186840688842F3D0DCF80010002008609D
S3151FFE2FF0236013681A68002AFBD1E3E708B5034668
S3151FFE300008468A689278022A04D05A684968FDF7EC
S3151FFE3010C9FA08BD5A684968FDF7A0FAF9E708B567
S3151FFE302008468B689B78022B03D04968FDF7B4FAD6
S3151FFE303008BD4968FDF7A0FAFAE710B503684168AF
S3151FFE30401C680B681A461B680BB19C42FAD10A60B4
S3151FFE3050FDF792FA10BD08B5FDF7C6FA00F030F877
S3151FFE306008BD000010B582B0134B1B68DB681B68DA
S3151FFE307093B15C6801A91148FFF718FF0346019833
S3151FFE3080027C022A0BD19C420ED0FDF7BBFA616869
S3151FFE30902046FDF799FA05E0074B9C68EAE71946B5
S3151FFE30A0FFF7BDFF02B010BD9A68042191705968E3
S3151FFE30B01846FDF761FAF5E72032FE1F4832FE1F5E
S3151FFE30C04FF0E023D3F8682422F0F002C3F86824F9
S3151FFE30D0D3F8682442F0F002C3F86824D3F80C2113
S3151FFE30E042F48072C3F80C21704708B5012000F028
S3151FFE30F023F808BD10B5EFF311842309013B072BF7
S3151FFE310002D9802383F3118862B683689B78012BCD
S3151FFE311009D0084B1B681968FFF770FF24F00F04D0
S3151FFE312084F3118810BD034B1B681968FFF777FFE1
S3151FFE3130F4E700BF2032FE1F38B50A4B1B681D6819
S3151FFE3140EFF311842309013B072B02D9802383F357
S3151FFE31501188FFF733FE24F00F0484F311882846E7
S3151FFE316038BD00BF2032FE1F4953520D0A00000014
S3151FFE317054657374204661696C65642121212C2078
S3151FFE31806C696E653A313638200D0A0049646C65E6
S3151FFE31900D0A000054657374204661696C656421CF
S3151FFE31A021212C206C696E653A323331200D0A00BF
S3151FFE31B052656C65617365205441534B310D0A0090
S3151FFE31C054657374204661696C65642121212C2028
S3151FFE31D06C696E653A323435200D0A005441534BE5
S3151FFE31E0320D0A0054657374204661696C6564214D
S3151FFE31F021212C206C696E653A323632200D0A006B
S3151FFE32005441534B330D0A005441534B340D0A00A0
S3151FFE32105441534B350D0A007433FE1F0200000046
S3151FFE322000000020BD06FE1F3833FE1F3832FE1F6C
S3151FFE32301832FE1F0100000000020020FFFFFF7F65
S3151FFE3240010000003832FE1F080200205433FE1F05
S3151FFE3250080000004432FE1F01000000100200207D
S3151FFE326000020000180400200002000000EC0120EE
S3151FFE3270000400006C32FE1F2800002064000020A0
S3151FFE328000000000020000008529FE1F81FF0100CD
S3151FFE32906C32FE1F28000020740000200100000073
S3151FFE32A0020000007106FE1F808001005C32FE1FB9
S3151FFE32B02000002084000020020000000000000005
S3151FFE32C04107FE1F010101006432FE1F240000207C
S3151FFE32D0940000200300000001000000E107FE1F0E
S3151FFE32E0020201006C32FE1F28000020A4000020EF
S3151FFE32F004000000000000004D08FE1F0101010032
S3151FFE33006C32FE1F28000020B400002005000000BE
S3151FFE3310000000007908FE1F010101006C32FE1F2E
S3151FFE332028000020C4000020060000000000000048
S3151FFE33309908FE1F010101006C32FE1F28000020A6
S3151FFE3340D40000200700000003000000652CFE1FAE
S3151FFE3350000001007432FE1F9032FE1FAC32FE1FAC
S3151FFE3360C832FE1FE432FE1F0033FE1F1C33FE1F34
S3151FFE33703833FE1FAC32FE1F0033FE1F0101010153
S3151FFE338000010000010100000100010000127A0089
S3151FFE339000010002010100000001000000000C00F8
S3151FFE33A001010000010000000000000001000000F6
S3151FFE33B003010101000303000102030100060001D0
S3151FFE33C001000000010000010100000001000000D5
S3151FFE33D000000000000000000000000000000000CA
S3151FFE33E000000000000000000000000000000000BA
S3151FFE33F000000000000000000000000001010101A6
S3151FFE3400010101010000000003000000A834FE1F99
S3151FFE34100101000000000000000000000000000186
S3151FFE34200607010001000000000000007C33FE1F9E
S3151FFE343000B004400C000000000000010000000068
S3151FFE344080F00F400000000000B004400D00000099
S3151FFE3450000000010000000080F00F400000000089
S3151FFE346000D004401500000000000001000000000F
S3151FFE347000F10F400100000000D0044016000000BE
S3151FFE3480000000010000000000F10F4001000000D7
S3151FFE349000D00440170000000000000100000000DD
S3151FFE34A000F10F400100000033010000003501004E
S3151FFE34B000004301000000000000000000000000A5
S3151FFE34C000000000000000000000000000000000D9
S3151FFE34D000000000000000000000000000000000C9
S3151FFE34E000000000000000000000000000000000B9
S3151FFE34F000000000000000000000000000000000A9
S3151FFE35000000000000000000000000000000000098
S3151FFE35100000730032002100610049004A004B0083
S3151FFE35204C004D003D0054005500000024002500B0
S3151FFE35302B00360031000000200000007900380005
S3151FFE354039003A0026006E006F0070007100000001
S3151FFE35503B0027005A006600670037002C002D002F
S3151FFE35602E0040006A006B006C0076000000000013
S3151FFE357000000000000000000000000000FCAC067A
S3151FFE3580007E5603003FAB0100FCAC06007E5603D1
S3151FFE3590003FAB0100FCAC06007E5603003FAB01AD
S3151FFE35A000000000000000000000000000000000F8
S3151FFE35B0000000000000000000FCAC06007E560363
S3151FFE35C0003FAB01000000000000000000000000ED
S3151FFE35D000B4C404006CDC02B0F3960100B4C4044C
S3151FFE35E0006CDC02B0F3960100B4C404006CDC026E
S3151FFE35F0B0F396010000000000000000000000006E
S3151FFE360000000000000000000000000000B4C4041B
S3151FFE3610005A6202B0F3960100000000000000008F
S3151FFE36200000000000093D0000093D0040420F005A
S3151FFE363000093D0000093D0040420F0000093D0004
S3151FFE364000093D0040420F00000000000000000080
S3151FFE36500000000000000000000000000000000047
S3151FFE366000093D0000093D0040420F00000000001A
S3151FFE36700000000000000000000000000000000027
S3151FFE368000000000000000000000000000000041D6
S3151FFE36904141414100000000002020202020202023
S3151FFE36A020202020200040404040400080004E4801
S3151FFE36B0484848484848480030303030303030306F
S3151FFE36C0303630303020000000800340009003402B
S3151FFE36D000A003400060024000E0064000F00640E6
S3151FFE36E00000074000100740434445464748494AE5
S3151FFE36F068006E0074007A00800086008C009200BF
S30D1FFE3700F8B500BFF8B500BFC6
S315200000003833FE1F000000002C00002000000000F6
S3152000001000FF0000000000000000000000000000BB
S3152000002010040020180600200000000034000020E4
S31520000030000000003C0000200000000044000020DA
S31520000040000000004C0000200000000054000020AA
S31520000050000000005C0000200000000000000000FE
S3152000006000000000008100000000000000000000E9
S3152000007000000000008000000000000000000000DA
S315200000800000000000010000000000000000000049
S315200000900000000000020000000000000000000038
S315200000A00000000000010000000000000000000029
S315200000B00000000000010000000000000000000019
S315200000C00000000000010000000000000000000009
S315200000D000000000010004000000000000000000F5
S315200000E000000000060000007C9200004C01020087
S315200000F0004D010200002D010000002E010000002D
S315200001002F01000000420102000030010000003AE9
S31520000110010000003B010000003C010000004E01F0
S3152000012002000040010000004301020000440102D9
S3152000013000004501020000460102000047010200BE
S3152000014000480102000049010200004A01020000A5
S315200001504F0102000050010200005101020000522E
S315200001600102000053010200005401020000550163
S315200001700200005601020000570102000058010249
S3152000018000003D010000003E01000000310100009A
S31520000190003201000000330100000034010000009D
S315200001A0350100000059010000003601000000372B
S311200001B0010000003801000000000000E3
S7051FFE0401D8
